{
  "transactions": [
    {
      "hash": "0xae5f921fc4dfec9e7888ebfa080c02cb0c7e60b78299c7e58021370b73343118",
      "transactionType": "CALL",
      "contractName": null,
      "contractAddress": "0x718c277e58477f0093f68f2c5f9815f258441dd4",
      "function": "allowlistComputer(address)",
      "arguments": [
        "0x8140A454631Fd016034Db7e07Dfd9D9EFC058546"
      ],
      "transaction": {
        "from": "0x679a295b982e75c1060bce840ca8044ffd340eaf",
        "to": "0x718c277e58477f0093f68f2c5f9815f258441dd4",
        "gas": "0x113db",
        "value": "0x0",
        "input": "0xe1ff2ed10000000000000000000000008140a454631fd016034db7e07dfd9d9efc058546",
        "nonce": "0x4c",
        "chainId": "0xaa36a7"
      },
      "additionalContracts": [],
      "isFixedGasLimit": false
    }
  ],
  "receipts": [
    {
      "status": "0x1",
      "cumulativeGasUsed": "0x40b70d",
      "logs": [],
      "logsBloom": "0x00000000000000000000000000000000000000000000000000000000000000000000000000000000000000000000000000000000000000000000000000000000000000000000000000000000000000000000000000000000000000000000000000000000000000000000000000000000000000000000000000000000000000000000000000000000000000000000000000000000000000000000000000000000000000000000000000000000000000000000000000000000000000000000000000000000000000000000000000000000000000000000000000000000000000000000000000000000000000000000000000000000000000000000000000000000",
      "type": "0x2",
      "transactionHash": "0xae5f921fc4dfec9e7888ebfa080c02cb0c7e60b78299c7e58021370b73343118",
      "transactionIndex": "0x2c",
      "blockHash": "0x3a5f936fa9893a641174bf522dd36ebae86eeed1ff7962b7df3547ae7683514b",
      "blockNumber": "0x8f9b51",
      "gasUsed": "0xc7b8",
      "effectiveGasPrice": "0xf4249",
      "from": "0x679a295b982e75c1060bce840ca8044ffd340eaf",
      "to": "0x718c277e58477f0093f68f2c5f9815f258441dd4",
      "contractAddress": null
    }
  ],
  "libraries": [],
  "pending": [],
  "returns": {},
  "timestamp": 1760462701,
  "chain": 11155111,
  "commit": "cd36534"
}